{
  "contractName": "Report",
  "abi": [
    {
      "inputs": [],
      "stateMutability": "nonpayable",
      "type": "constructor"
    },
    {
      "inputs": [],
      "name": "currentTimePeriod",
      "outputs": [
        {
          "internalType": "uint256",
          "name": "",
          "type": "uint256"
        }
      ],
      "stateMutability": "view",
      "type": "function",
      "constant": true
    },
    {
      "inputs": [],
      "name": "hospital_details",
      "outputs": [
        {
          "internalType": "string",
          "name": "",
          "type": "string"
        }
      ],
      "stateMutability": "view",
      "type": "function",
      "constant": true
    },
    {
      "inputs": [],
      "name": "patient_details",
      "outputs": [
        {
          "internalType": "string",
          "name": "",
          "type": "string"
        }
      ],
      "stateMutability": "view",
      "type": "function",
      "constant": true
    },
    {
      "inputs": [],
      "name": "prescription",
      "outputs": [
        {
          "internalType": "string",
          "name": "",
          "type": "string"
        }
      ],
      "stateMutability": "view",
      "type": "function",
      "constant": true
    },
    {
      "inputs": [],
      "name": "revocation_details",
      "outputs": [
        {
          "internalType": "string",
          "name": "",
          "type": "string"
        }
      ],
      "stateMutability": "view",
      "type": "function",
      "constant": true
    },
    {
      "inputs": [
        {
          "internalType": "string",
          "name": "hd",
          "type": "string"
        }
      ],
      "name": "setHospital",
      "outputs": [],
      "stateMutability": "nonpayable",
      "type": "function"
    },
    {
      "inputs": [],
      "name": "getHospital",
      "outputs": [
        {
          "internalType": "string",
          "name": "",
          "type": "string"
        }
      ],
      "stateMutability": "view",
      "type": "function",
      "constant": true
    },
    {
      "inputs": [
        {
          "internalType": "string",
          "name": "pd",
          "type": "string"
        }
      ],
      "name": "setPatient",
      "outputs": [],
      "stateMutability": "nonpayable",
      "type": "function"
    },
    {
      "inputs": [],
      "name": "getPatient",
      "outputs": [
        {
          "internalType": "string",
          "name": "",
          "type": "string"
        }
      ],
      "stateMutability": "view",
      "type": "function",
      "constant": true
    },
    {
      "inputs": [
        {
          "internalType": "string",
          "name": "p",
          "type": "string"
        }
      ],
      "name": "setPrescription",
      "outputs": [],
      "stateMutability": "nonpayable",
      "type": "function"
    },
    {
      "inputs": [],
      "name": "getPrescription",
      "outputs": [
        {
          "internalType": "string",
          "name": "",
          "type": "string"
        }
      ],
      "stateMutability": "view",
      "type": "function",
      "constant": true
    },
    {
      "inputs": [
        {
          "internalType": "string",
          "name": "rd",
          "type": "string"
        }
      ],
      "name": "setRevocation",
      "outputs": [],
      "stateMutability": "nonpayable",
      "type": "function"
    },
    {
      "inputs": [],
      "name": "getRevocation",
      "outputs": [
        {
          "internalType": "string",
          "name": "",
          "type": "string"
        }
      ],
      "stateMutability": "view",
      "type": "function",
      "constant": true
    },
    {
      "inputs": [],
      "name": "advanceTimePeriod",
      "outputs": [],
      "stateMutability": "nonpayable",
      "type": "function"
    },
    {
      "inputs": [],
      "name": "getTimePeriod",
      "outputs": [
        {
          "internalType": "uint256",
          "name": "",
          "type": "uint256"
        }
      ],
      "stateMutability": "view",
      "type": "function",
      "constant": true
    }
  ],
  "bytecode": "0x60808060405234620001c8576000805460019182821691831c8215620001bf575b60209283821014620001ab57601f908181116200017e575b50600082556002548481811c9116801562000173575b84821014620000ee5781811162000145575b50600060025583548481811c911680156200013a575b84821014620000ee578181116200010d575b5060008455600354928484811c9416801562000102575b81851014620000ee57818411620000c8575b85856000600355600455610b1f9081620001ce8239f35b600383528220920160051c82019183905b83811015620000b157828155018390620000d9565b634e487b7160e01b83526022600452602483fd5b93607f16936200009f565b8483528482858520920160051c8201915b8281106200012e57505062000088565b8481550185906200011e565b90607f169062000076565b600283528482858520920160051c8201915b8281106200016757505062000060565b84815501859062000157565b90607f16906200004e565b8280528482858520920160051c8201915b8281106200019f57505062000038565b8481550185906200018f565b634e487b7160e01b82526022600452602482fd5b607f1662000020565b600080fdfe6040608081526004908136101561001557600080fd5b600091823560e01c90816318769d46146104335781632425c26a146106fe57816327481dcd146105a95781633680f6ee14610451578163389b4fe3146104335781634c3b90861461011957816351b5545b146102dc578163609a1275146102be5781637b0f9a36146101375781637fa63f85146100f757816395b679911461015557816397be188214610137578163af151ccc14610119578163af76dd1b146100f7575063e5156d28146100c857600080fd5b346100f357816003193601126100f3576100ef906100e46109ba565b905191829182610735565b0390f35b5080fd5b90503461011557826003193601126101155760209250549051908152f35b8280fd5b5050346100f357816003193601126100f3576100ef906100e4610921565b5050346100f357816003193601126100f3576100ef906100e4610a53565b83346102bb57610164366107b6565b9182519067ffffffffffffffff82116102a85750610182825461082c565b601f8111610246575b50602080601f83116001146101c7575082938293926101bc575b50508160011b916000199060031b1c191617815580f35b0151905083806101a5565b838052601f198316947f290decd9548b62a8d60345a988386fc84ba6bc95484008f6362f93160ef3e563929185905b87821061022e575050836001959610610215575b505050811b01815580f35b015160001960f88460031b161c1916905583808061020a565b806001859682949686015181550195019301906101f6565b8280527f290decd9548b62a8d60345a988386fc84ba6bc95484008f6362f93160ef3e563601f830160051c8101916020841061029e575b601f0160051c01905b818110610293575061018b565b838155600101610286565b909150819061027d565b634e487b7160e01b835260419052602482fd5b80fd5b5050346100f357816003193601126100f3576100ef906100e46109ba565b83346102bb576102eb366107b6565b9182519067ffffffffffffffff82116102a8575060019061030c825461082c565b601f81116103ce575b50602080601f83116001146103515750839482939492610346575b5050600019600383901b1c191690821b17905580f35b015190508480610330565b838552601f198316957fb10e2d527612073b26eecdfd717e6a320cf44b4afac2b0732d9fcbe2b7fa0cf6929186905b8882106103b7575050838596971061039e575b505050811b01905580f35b015160001960f88460031b161c19169055848080610393565b808785968294968601518155019501930190610380565b8284527fb10e2d527612073b26eecdfd717e6a320cf44b4afac2b0732d9fcbe2b7fa0cf6601f830160051c81019160208410610429575b601f0160051c019083905b82811061041e575050610315565b858155018390610410565b9091508190610405565b5050346100f357816003193601126100f3576100ef906100e4610866565b83346102bb57610460366107b6565b9182519067ffffffffffffffff82116102a8575061047f60025461082c565b601f8111610546575b50602080601f83116001146104c5575082938293926104ba575b50508160011b916000199060031b1c19161760025580f35b0151905083806104a2565b60028452601f198316947f405787fa12a823e0f2b7631cc41b3ba8828b3321ca811111fa75cd3aa3bb5ace929185905b87821061052e575050836001959610610515575b505050811b0160025580f35b015160001960f88460031b161c19169055838080610509565b806001859682949686015181550195019301906104f5565b600283527f405787fa12a823e0f2b7631cc41b3ba8828b3321ca811111fa75cd3aa3bb5ace601f830160051c8101916020841061059f575b601f0160051c01905b8181106105945750610488565b838155600101610587565b909150819061057e565b83346102bb576105b8366107b6565b9182519067ffffffffffffffff82116102a857506003906105d9825461082c565b601f811161069c575b50602080601f831160011461061e5750839482939492610613575b50508160011b9160001990841b1c191617905580f35b0151905084806105fd565b838552601f198316957fc2575a0e9e593c00f959f8c92f12db2869c3395a3b0502d05e2516446f71f85b929186905b8882106106845750508360019596971061066c57505050811b01905580f35b015160001983861b60f8161c19169055848080610393565b8060018596829496860151815501950193019061064d565b8284527fc2575a0e9e593c00f959f8c92f12db2869c3395a3b0502d05e2516446f71f85b601f830160051c810191602084106106f4575b601f0160051c01905b8181106106e957506105e2565b8481556001016106dc565b90915081906106d3565b8390346100f357816003193601126100f35780549060018201809211610722575580f35b634e487b7160e01b835260119052602482fd5b6020808252825181830181905290939260005b82811061076a57505060409293506000838284010152601f8019910116010190565b818101860151848201604001528501610748565b90601f8019910116810190811067ffffffffffffffff8211176107a057604052565b634e487b7160e01b600052604160045260246000fd5b60206003198201126108275767ffffffffffffffff60043581811161082757826023820112156108275780600401359182116107a05760405192610804601f8401601f19166020018561077e565b828452602483830101116108275781600092602460209301838601378301015290565b600080fd5b90600182811c9216801561085c575b602083101461084657565b634e487b7160e01b600052602260045260246000fd5b91607f169161083b565b604051906000828154916108798361082c565b808352926001908181169081156108ff57506001146108a2575b506108a09250038361077e565b565b600080805291507f290decd9548b62a8d60345a988386fc84ba6bc95484008f6362f93160ef3e5635b8483106108e457506108a0935050810160200138610893565b81935090816020925483858a010152019101909185926108cb565b9050602092506108a094915060ff191682840152151560051b82010138610893565b60405190600082600254916109358361082c565b808352926001908181169081156108ff575060011461095b57506108a09250038361077e565b6002600090815291507f405787fa12a823e0f2b7631cc41b3ba8828b3321ca811111fa75cd3aa3bb5ace5b84831061099f57506108a0935050810160200138610893565b81935090816020925483858a01015201910190918592610986565b60405190600082600354916109ce8361082c565b808352926001908181169081156108ff57506001146109f457506108a09250038361077e565b6003600090815291507fc2575a0e9e593c00f959f8c92f12db2869c3395a3b0502d05e2516446f71f85b5b848310610a3857506108a0935050810160200138610893565b81935090816020925483858a01015201910190918592610a1f565b60405190600082600191825492610a698461082c565b808452938181169081156108ff5750600114610a8c57506108a09250038361077e565b600081815291507fb10e2d527612073b26eecdfd717e6a320cf44b4afac2b0732d9fcbe2b7fa0cf65b848310610ace57506108a0935050810160200138610893565b81935090816020925483858a01015201910190918592610ab556fea26469706673582212201fcbd295ef9dc8fc3d584eee86686216afaa966ea20eab43558c02ad3aa5808c64736f6c63430008140033",
  "immutableReferences": {},
  "source": "// SPDX-License-Identifier: MIT\npragma solidity >= 0.4.0 <= 0.9.0;\n\ncontract Report {\n    string public hospital_details;\n    string public patient_details;\n    string public prescription;\n\n    // ── KAC-UR additions ─────────────────────────────────────────────\n    // Stores revocation records as newline-delimited encrypted strings.\n    // Format per record (after decryption in Python):\n    //   Patient layer : \"patient_revoke#<patient>#<doctor>#<date>\"\n    //   Admin layer   : \"admin_revoke#<doctor>#<date>\"\n    string public revocation_details;\n\n    // Global time-period counter (incremented on each revocation or advance)\n    uint256 public currentTimePeriod;\n    // ─────────────────────────────────────────────────────────────────\n\n    // ── Existing hospital functions ───────────────────────────────────\n    function setHospital(string memory hd) public {\n       hospital_details = hd;\n    }\n    function getHospital() public view returns (string memory) {\n        return hospital_details;\n    }\n\n    // ── Existing patient functions ────────────────────────────────────\n    function setPatient(string memory pd) public {\n       patient_details = pd;\n    }\n    function getPatient() public view returns (string memory) {\n        return patient_details;\n    }\n\n    // ── Existing prescription functions ───────────────────────────────\n    function setPrescription(string memory p) public {\n       prescription = p;\n    }\n    function getPrescription() public view returns (string memory) {\n        return prescription;\n    }\n\n    // ── KAC-UR: Revocation functions ──────────────────────────────────\n    // Store revocation records (append-style, managed from Python layer)\n    function setRevocation(string memory rd) public {\n        revocation_details = rd;\n    }\n\n    function getRevocation() public view returns (string memory) {\n        return revocation_details;\n    }\n\n    // ── KAC-UR: Time period functions ─────────────────────────────────\n    // Advance to next time period (called on revocation or scheduled)\n    function advanceTimePeriod() public {\n        currentTimePeriod += 1;\n    }\n\n    function getTimePeriod() public view returns (uint256) {\n        return currentTimePeriod;\n    }\n\n    constructor() public {\n        hospital_details   = \"\";\n        prescription       = \"\";\n        patient_details    = \"\";\n        revocation_details = \"\";\n        currentTimePeriod  = 1;\n    }\n}",
  "sourcePath": "C:\\Users\\sai charan ramuni\\OneDrive\\Documents\\Blockchain-Based anonymous authentication framework for Healthcare IoT\\contracts\\Report.sol",
  "compiler": {
    "name": "solc",
    "version": "0.8.20+commit.a1b79de6.Emscripten.clang"
  },
  "schemaVersion": "3.4.16",
  "updatedAt": "2026-04-09T15:59:05.357Z",
  "networkType": "ethereum",
  "devdoc": {
    "kind": "dev",
    "methods": {},
    "version": 1
  },
  "userdoc": {
    "kind": "user",
    "methods": {},
    "version": 1
  }
}