{
  "contractName": "Report",
  "abi": [
    {
      "inputs": [],
      "stateMutability": "nonpayable",
      "type": "constructor"
    },
    {
      "inputs": [],
      "name": "hospital_details",
      "outputs": [
        {
          "internalType": "string",
          "name": "",
          "type": "string"
        }
      ],
      "stateMutability": "view",
      "type": "function",
      "constant": true
    },
    {
      "inputs": [],
      "name": "patient_details",
      "outputs": [
        {
          "internalType": "string",
          "name": "",
          "type": "string"
        }
      ],
      "stateMutability": "view",
      "type": "function",
      "constant": true
    },
    {
      "inputs": [],
      "name": "prescription",
      "outputs": [
        {
          "internalType": "string",
          "name": "",
          "type": "string"
        }
      ],
      "stateMutability": "view",
      "type": "function",
      "constant": true
    },
    {
      "inputs": [
        {
          "internalType": "string",
          "name": "hd",
          "type": "string"
        }
      ],
      "name": "setHospital",
      "outputs": [],
      "stateMutability": "nonpayable",
      "type": "function"
    },
    {
      "inputs": [],
      "name": "getHospital",
      "outputs": [
        {
          "internalType": "string",
          "name": "",
          "type": "string"
        }
      ],
      "stateMutability": "view",
      "type": "function",
      "constant": true
    },
    {
      "inputs": [
        {
          "internalType": "string",
          "name": "pd",
          "type": "string"
        }
      ],
      "name": "setPatient",
      "outputs": [],
      "stateMutability": "nonpayable",
      "type": "function"
    },
    {
      "inputs": [],
      "name": "getPatient",
      "outputs": [
        {
          "internalType": "string",
          "name": "",
          "type": "string"
        }
      ],
      "stateMutability": "view",
      "type": "function",
      "constant": true
    },
    {
      "inputs": [
        {
          "internalType": "string",
          "name": "p",
          "type": "string"
        }
      ],
      "name": "setPrescription",
      "outputs": [],
      "stateMutability": "nonpayable",
      "type": "function"
    },
    {
      "inputs": [],
      "name": "getPrescription",
      "outputs": [
        {
          "internalType": "string",
          "name": "",
          "type": "string"
        }
      ],
      "stateMutability": "view",
      "type": "function",
      "constant": true
    }
  ],
  "bytecode": "0x6080806040523461014d576000805460019182821691831c8215610145575b6020928382101461013157601f90818111610107575b50600082556002548481811c911680156100fd575b848210146100b4578181116100d2575b5060006002558354928484811c941680156100c8575b818510146100b45781841161008f575b6000855561086c86816101538239f35b8483528220920160051c8201915b8281106100aa578061007f565b818155830161009d565b634e487b7160e01b83526022600452602483fd5b93607f169361006f565b600283528482858520920160051c8201915b8281106100f2575050610059565b8481550185906100e4565b90607f1690610049565b8280528482858520920160051c8201915b828110610126575050610034565b848155018590610118565b634e487b7160e01b82526022600452602482fd5b607f1661001e565b600080fdfe604060808152600436101561001357600080fd5b600090813560e01c806318769d46146103a85780633680f6ee146103c5578063389b4fe3146103a85780634c3b90861461038b57806351b5545b146102365780637b0f9a36146100b157806395b67991146100ce57806397be1882146100b15763af151ccc1461008257600080fd5b346100ad57816003193601126100ad576100a99061009e610707565b90519182918261051b565b0390f35b5080fd5b50346100ad57816003193601126100ad576100a99061009e6107a0565b8234610233576100dd3661059c565b90815167ffffffffffffffff811161021f576100f98254610612565b601f81116101bd575b50602080601f831160011461013e57508293829392610133575b50508160011b916000199060031b1c191617815580f35b01519050838061011c565b838052601f198316947f290decd9548b62a8d60345a988386fc84ba6bc95484008f6362f93160ef3e563929185905b8782106101a557505083600195961061018c575b505050811b01815580f35b015160001960f88460031b161c19169055838080610181565b8060018596829496860151815501950193019061016d565b8280527f290decd9548b62a8d60345a988386fc84ba6bc95484008f6362f93160ef3e563601f830160051c81019160208410610215575b601f0160051c01905b81811061020a5750610102565b8381556001016101fd565b90915081906101f4565b634e487b7160e01b82526041600452602482fd5b80fd5b8234610233576102453661059c565b90815167ffffffffffffffff811161021f576001906102648254610612565b601f8111610326575b50602080601f83116001146102a9575083948293949261029e575b5050600019600383901b1c191690821b17905580f35b015190508480610288565b838552601f198316957fb10e2d527612073b26eecdfd717e6a320cf44b4afac2b0732d9fcbe2b7fa0cf6929186905b88821061030f57505083859697106102f6575b505050811b01905580f35b015160001960f88460031b161c191690558480806102eb565b8087859682949686015181550195019301906102d8565b8284527fb10e2d527612073b26eecdfd717e6a320cf44b4afac2b0732d9fcbe2b7fa0cf6601f830160051c81019160208410610381575b601f0160051c019083905b82811061037657505061026d565b858155018390610368565b909150819061035d565b50346100ad57816003193601126100ad576100a99061009e610707565b50346100ad57816003193601126100ad576100a99061009e61064c565b8234610233576103d43661059c565b90815167ffffffffffffffff811161021f576103f1600254610612565b601f81116104b8575b50602080601f83116001146104375750829382939261042c575b50508160011b916000199060031b1c19161760025580f35b015190508380610414565b60028452601f198316947f405787fa12a823e0f2b7631cc41b3ba8828b3321ca811111fa75cd3aa3bb5ace929185905b8782106104a0575050836001959610610487575b505050811b0160025580f35b015160001960f88460031b161c1916905583808061047b565b80600185968294968601518155019501930190610467565b600283527f405787fa12a823e0f2b7631cc41b3ba8828b3321ca811111fa75cd3aa3bb5ace601f830160051c81019160208410610511575b601f0160051c01905b81811061050657506103fa565b8381556001016104f9565b90915081906104f0565b6020808252825181830181905290939260005b82811061055057505060409293506000838284010152601f8019910116010190565b81810186015184820160400152850161052e565b90601f8019910116810190811067ffffffffffffffff82111761058657604052565b634e487b7160e01b600052604160045260246000fd5b602060031982011261060d5767ffffffffffffffff60043581811161060d578260238201121561060d57806004013591821161058657604051926105ea601f8401601f191660200185610564565b8284526024838301011161060d5781600092602460209301838601378301015290565b600080fd5b90600182811c92168015610642575b602083101461062c57565b634e487b7160e01b600052602260045260246000fd5b91607f1691610621565b6040519060008281549161065f83610612565b808352926001908181169081156106e55750600114610688575b5061068692500383610564565b565b600080805291507f290decd9548b62a8d60345a988386fc84ba6bc95484008f6362f93160ef3e5635b8483106106ca5750610686935050810160200138610679565b81935090816020925483858a010152019101909185926106b1565b90506020925061068694915060ff191682840152151560051b82010138610679565b604051906000826002549161071b83610612565b808352926001908181169081156106e55750600114610741575061068692500383610564565b6002600090815291507f405787fa12a823e0f2b7631cc41b3ba8828b3321ca811111fa75cd3aa3bb5ace5b8483106107855750610686935050810160200138610679565b81935090816020925483858a0101520191019091859261076c565b604051906000826001918254926107b684610612565b808452938181169081156106e557506001146107d9575061068692500383610564565b600081815291507fb10e2d527612073b26eecdfd717e6a320cf44b4afac2b0732d9fcbe2b7fa0cf65b84831061081b5750610686935050810160200138610679565b81935090816020925483858a0101520191019091859261080256fea2646970667358221220af60f38e23a661f8456e7ddc1dfbce2457358ec598e8da07f9b1d861a1d65fed64736f6c63430008140033",
  "immutableReferences": {},
  "source": "// SPDX-License-Identifier: MIT\r\npragma solidity >= 0.4.0 <= 0.9.0;\r\n\r\ncontract Report {\r\n    string public hospital_details;\r\n    string public patient_details;\r\n    string public prescription;\r\n       \r\n    //call this function to save hospital data to Blockchain\r\n    function setHospital(string memory hd) public {\r\n       hospital_details = hd;\t\r\n    }\r\n   //get hospital details\r\n    function getHospital() public view returns (string memory) {\r\n        return hospital_details;\r\n    }\r\n\r\n    //call this function to save patient data to Blockchain\r\n    function setPatient(string memory pd) public {\r\n       patient_details = pd;\t\r\n    }\r\n   //get hospital details\r\n    function getPatient() public view returns (string memory) {\r\n        return patient_details;\r\n    }\r\n\r\n    //call this function to save prescription data to Blockchain\r\n    function setPrescription(string memory p) public {\r\n       prescription = p;\t\r\n    }\r\n   //get hospital details\r\n    function getPrescription() public view returns (string memory) {\r\n        return prescription;\r\n    }\r\n\r\n    constructor() public {\r\n        hospital_details=\"\";\r\n\tprescription = \"\";\r\n\tpatient_details=\"\";\r\n    }\r\n}",
  "sourcePath": "C:\\Users\\sai charan ramuni\\OneDrive\\Desktop\\Blockchain-Based anonymous authentication framework for Healthcare IoT\\contracts\\Report.sol",
  "compiler": {
    "name": "solc",
    "version": "0.8.20+commit.a1b79de6.Emscripten.clang"
  },
  "schemaVersion": "3.4.16",
  "updatedAt": "2026-03-28T10:00:44.468Z",
  "networkType": "ethereum",
  "devdoc": {
    "kind": "dev",
    "methods": {},
    "version": 1
  },
  "userdoc": {
    "kind": "user",
    "methods": {},
    "version": 1
  }
}